{
  "_format": "hh-sol-artifact-1",
  "contractName": "NoteMarketplace",
  "sourceName": "contracts/NoteMarketplace.sol",
  "abi": [
    {
      "inputs": [],
      "stateMutability": "nonpayable",
      "type": "constructor"
    },
    {
      "anonymous": false,
      "inputs": [
        {
          "indexed": true,
          "internalType": "address",
          "name": "owner",
          "type": "address"
        },
        {
          "indexed": true,
          "internalType": "address",
          "name": "approved",
          "type": "address"
        },
        {
          "indexed": true,
          "internalType": "uint256",
          "name": "tokenId",
          "type": "uint256"
        }
      ],
      "name": "Approval",
      "type": "event"
    },
    {
      "anonymous": false,
      "inputs": [
        {
          "indexed": true,
          "internalType": "address",
          "name": "owner",
          "type": "address"
        },
        {
          "indexed": true,
          "internalType": "address",
          "name": "operator",
          "type": "address"
        },
        {
          "indexed": false,
          "internalType": "bool",
          "name": "approved",
          "type": "bool"
        }
      ],
      "name": "ApprovalForAll",
      "type": "event"
    },
    {
      "anonymous": false,
      "inputs": [
        {
          "indexed": true,
          "internalType": "uint256",
          "name": "tokenId",
          "type": "uint256"
        },
        {
          "indexed": false,
          "internalType": "address",
          "name": "owner",
          "type": "address"
        },
        {
          "indexed": false,
          "internalType": "address",
          "name": "seller",
          "type": "address"
        },
        {
          "indexed": false,
          "internalType": "uint256",
          "name": "price",
          "type": "uint256"
        },
        {
          "indexed": false,
          "internalType": "bool",
          "name": "currentlyListed",
          "type": "bool"
        }
      ],
      "name": "NoteListedSuccess",
      "type": "event"
    },
    {
      "anonymous": false,
      "inputs": [
        {
          "indexed": true,
          "internalType": "address",
          "name": "from",
          "type": "address"
        },
        {
          "indexed": true,
          "internalType": "address",
          "name": "to",
          "type": "address"
        },
        {
          "indexed": true,
          "internalType": "uint256",
          "name": "tokenId",
          "type": "uint256"
        }
      ],
      "name": "Transfer",
      "type": "event"
    },
    {
      "inputs": [
        {
          "internalType": "address",
          "name": "to",
          "type": "address"
        },
        {
          "internalType": "uint256",
          "name": "tokenId",
          "type": "uint256"
        }
      ],
      "name": "approve",
      "outputs": [],
      "stateMutability": "nonpayable",
      "type": "function"
    },
    {
      "inputs": [
        {
          "internalType": "address",
          "name": "owner",
          "type": "address"
        }
      ],
      "name": "balanceOf",
      "outputs": [
        {
          "internalType": "uint256",
          "name": "",
          "type": "uint256"
        }
      ],
      "stateMutability": "view",
      "type": "function"
    },
    {
      "inputs": [
        {
          "internalType": "uint256",
          "name": "tokenId",
          "type": "uint256"
        }
      ],
      "name": "executeSale",
      "outputs": [],
      "stateMutability": "payable",
      "type": "function"
    },
    {
      "inputs": [],
      "name": "getAllListedNotes",
      "outputs": [
        {
          "components": [
            {
              "internalType": "uint256",
              "name": "tokenId",
              "type": "uint256"
            },
            {
              "internalType": "address payable",
              "name": "owner",
              "type": "address"
            },
            {
              "internalType": "address payable",
              "name": "seller",
              "type": "address"
            },
            {
              "internalType": "uint256",
              "name": "price",
              "type": "uint256"
            },
            {
              "internalType": "bool",
              "name": "currentlyListed",
              "type": "bool"
            }
          ],
          "internalType": "struct NoteMarketplace.ListedNote[]",
          "name": "",
          "type": "tuple[]"
        }
      ],
      "stateMutability": "view",
      "type": "function"
    },
    {
      "inputs": [
        {
          "internalType": "uint256",
          "name": "tokenId",
          "type": "uint256"
        }
      ],
      "name": "getApproved",
      "outputs": [
        {
          "internalType": "address",
          "name": "",
          "type": "address"
        }
      ],
      "stateMutability": "view",
      "type": "function"
    },
    {
      "inputs": [],
      "name": "getCurrentNote",
      "outputs": [
        {
          "internalType": "uint256",
          "name": "",
          "type": "uint256"
        }
      ],
      "stateMutability": "view",
      "type": "function"
    },
    {
      "inputs": [],
      "name": "getLatestIdToListedNote",
      "outputs": [
        {
          "components": [
            {
              "internalType": "uint256",
              "name": "tokenId",
              "type": "uint256"
            },
            {
              "internalType": "address payable",
              "name": "owner",
              "type": "address"
            },
            {
              "internalType": "address payable",
              "name": "seller",
              "type": "address"
            },
            {
              "internalType": "uint256",
              "name": "price",
              "type": "uint256"
            },
            {
              "internalType": "bool",
              "name": "currentlyListed",
              "type": "bool"
            }
          ],
          "internalType": "struct NoteMarketplace.ListedNote",
          "name": "",
          "type": "tuple"
        }
      ],
      "stateMutability": "view",
      "type": "function"
    },
    {
      "inputs": [],
      "name": "getListPrice",
      "outputs": [
        {
          "internalType": "uint256",
          "name": "",
          "type": "uint256"
        }
      ],
      "stateMutability": "view",
      "type": "function"
    },
    {
      "inputs": [
        {
          "internalType": "uint256",
          "name": "tokenId",
          "type": "uint256"
        }
      ],
      "name": "getListedNoteForId",
      "outputs": [
        {
          "components": [
            {
              "internalType": "uint256",
              "name": "tokenId",
              "type": "uint256"
            },
            {
              "internalType": "address payable",
              "name": "owner",
              "type": "address"
            },
            {
              "internalType": "address payable",
              "name": "seller",
              "type": "address"
            },
            {
              "internalType": "uint256",
              "name": "price",
              "type": "uint256"
            },
            {
              "internalType": "bool",
              "name": "currentlyListed",
              "type": "bool"
            }
          ],
          "internalType": "struct NoteMarketplace.ListedNote",
          "name": "",
          "type": "tuple"
        }
      ],
      "stateMutability": "view",
      "type": "function"
    },
    {
      "inputs": [],
      "name": "getMyNotes",
      "outputs": [
        {
          "components": [
            {
              "internalType": "uint256",
              "name": "tokenId",
              "type": "uint256"
            },
            {
              "internalType": "address payable",
              "name": "owner",
              "type": "address"
            },
            {
              "internalType": "address payable",
              "name": "seller",
              "type": "address"
            },
            {
              "internalType": "uint256",
              "name": "price",
              "type": "uint256"
            },
            {
              "internalType": "bool",
              "name": "currentlyListed",
              "type": "bool"
            }
          ],
          "internalType": "struct NoteMarketplace.ListedNote[]",
          "name": "",
          "type": "tuple[]"
        }
      ],
      "stateMutability": "view",
      "type": "function"
    },
    {
      "inputs": [
        {
          "internalType": "address",
          "name": "owner",
          "type": "address"
        },
        {
          "internalType": "address",
          "name": "operator",
          "type": "address"
        }
      ],
      "name": "isApprovedForAll",
      "outputs": [
        {
          "internalType": "bool",
          "name": "",
          "type": "bool"
        }
      ],
      "stateMutability": "view",
      "type": "function"
    },
    {
      "inputs": [],
      "name": "name",
      "outputs": [
        {
          "internalType": "string",
          "name": "",
          "type": "string"
        }
      ],
      "stateMutability": "view",
      "type": "function"
    },
    {
      "inputs": [
        {
          "internalType": "string",
          "name": "uri",
          "type": "string"
        },
        {
          "internalType": "uint256",
          "name": "price",
          "type": "uint256"
        }
      ],
      "name": "noteMint",
      "outputs": [],
      "stateMutability": "nonpayable",
      "type": "function"
    },
    {
      "inputs": [
        {
          "internalType": "uint256",
          "name": "tokenId",
          "type": "uint256"
        }
      ],
      "name": "ownerOf",
      "outputs": [
        {
          "internalType": "address",
          "name": "",
          "type": "address"
        }
      ],
      "stateMutability": "view",
      "type": "function"
    },
    {
      "inputs": [
        {
          "internalType": "address",
          "name": "from",
          "type": "address"
        },
        {
          "internalType": "address",
          "name": "to",
          "type": "address"
        },
        {
          "internalType": "uint256",
          "name": "tokenId",
          "type": "uint256"
        }
      ],
      "name": "safeTransferFrom",
      "outputs": [],
      "stateMutability": "nonpayable",
      "type": "function"
    },
    {
      "inputs": [
        {
          "internalType": "address",
          "name": "from",
          "type": "address"
        },
        {
          "internalType": "address",
          "name": "to",
          "type": "address"
        },
        {
          "internalType": "uint256",
          "name": "tokenId",
          "type": "uint256"
        },
        {
          "internalType": "bytes",
          "name": "data",
          "type": "bytes"
        }
      ],
      "name": "safeTransferFrom",
      "outputs": [],
      "stateMutability": "nonpayable",
      "type": "function"
    },
    {
      "inputs": [
        {
          "internalType": "address",
          "name": "operator",
          "type": "address"
        },
        {
          "internalType": "bool",
          "name": "approved",
          "type": "bool"
        }
      ],
      "name": "setApprovalForAll",
      "outputs": [],
      "stateMutability": "nonpayable",
      "type": "function"
    },
    {
      "inputs": [
        {
          "internalType": "bytes4",
          "name": "interfaceId",
          "type": "bytes4"
        }
      ],
      "name": "supportsInterface",
      "outputs": [
        {
          "internalType": "bool",
          "name": "",
          "type": "bool"
        }
      ],
      "stateMutability": "view",
      "type": "function"
    },
    {
      "inputs": [],
      "name": "symbol",
      "outputs": [
        {
          "internalType": "string",
          "name": "",
          "type": "string"
        }
      ],
      "stateMutability": "view",
      "type": "function"
    },
    {
      "inputs": [
        {
          "internalType": "uint256",
          "name": "tokenId",
          "type": "uint256"
        }
      ],
      "name": "tokenURI",
      "outputs": [
        {
          "internalType": "string",
          "name": "",
          "type": "string"
        }
      ],
      "stateMutability": "view",
      "type": "function"
    },
    {
      "inputs": [
        {
          "internalType": "address",
          "name": "from",
          "type": "address"
        },
        {
          "internalType": "address",
          "name": "to",
          "type": "address"
        },
        {
          "internalType": "uint256",
          "name": "tokenId",
          "type": "uint256"
        }
      ],
      "name": "transferFrom",
      "outputs": [],
      "stateMutability": "nonpayable",
      "type": "function"
    },
    {
      "inputs": [
        {
          "internalType": "uint256",
          "name": "_listPrice",
          "type": "uint256"
        }
      ],
      "name": "updateListPrice",
      "outputs": [],
      "stateMutability": "payable",
      "type": "function"
    }
  ],
  "bytecode": "0x608060405266038d7ea4c68000600a553480156200001c57600080fd5b506040518060400160405280600f81526020017f4e6f74654d61726b6574706c61636500000000000000000000000000000000008152506040518060400160405280600381526020017f4e4d5000000000000000000000000000000000000000000000000000000000008152508160009080519060200190620000a192919062000104565b508060019080519060200190620000ba92919062000104565b50505033600960006101000a81548173ffffffffffffffffffffffffffffffffffffffff021916908373ffffffffffffffffffffffffffffffffffffffff16021790555062000219565b8280546200011290620001b4565b90600052602060002090601f01602090048101928262000136576000855562000182565b82601f106200015157805160ff191683800117855562000182565b8280016001018555821562000182579182015b828111156200018157825182559160200191906001019062000164565b5b50905062000191919062000195565b5090565b5b80821115620001b057600081600090555060010162000196565b5090565b60006002820490506001821680620001cd57607f821691505b60208210811415620001e457620001e3620001ea565b5b50919050565b7f4e487b7100000000000000000000000000000000000000000000000000000000600052602260045260246000fd5b613e8180620002296000396000f3fe6080604052600436106101355760003560e01c806386f17bb7116100ab578063b01e0f371161006f578063b01e0f3714610419578063b5494e4714610456578063b88d4fde14610481578063c322579c146104aa578063c87b56dd146104c6578063e985e9c51461050357610135565b806386f17bb71461035357806395d89b411461037e5780639b1225c4146103a9578063a22cb465146103c5578063ae34d23a146103ee57610135565b806323b872dd116100fd57806323b872dd1461023357806342842e0e1461025c5780635947e0b8146102855780636352211e146102ae57806368f1945f146102eb57806370a082311461031657610135565b806301ffc9a71461013a57806306fdde0314610177578063081812fc146101a2578063095ea7b3146101df5780630996caa014610208575b600080fd5b34801561014657600080fd5b50610161600480360381019061015c9190612dbc565b610540565b60405161016e91906133ab565b60405180910390f35b34801561018357600080fd5b5061018c610622565b60405161019991906133c6565b60405180910390f35b3480156101ae57600080fd5b506101c960048036038101906101c49190612e62565b6106b4565b6040516101d69190613322565b60405180910390f35b3480156101eb57600080fd5b5061020660048036038101906102019190612d80565b6106fa565b005b34801561021457600080fd5b5061021d610812565b60405161022a9190613389565b60405180910390f35b34801561023f57600080fd5b5061025a60048036038101906102559190612c7a565b610a45565b005b34801561026857600080fd5b50610283600480360381019061027e9190612c7a565b610aa5565b005b34801561029157600080fd5b506102ac60048036038101906102a79190612e0e565b610ac5565b005b3480156102ba57600080fd5b506102d560048036038101906102d09190612e62565b610b00565b6040516102e29190613322565b60405180910390f35b3480156102f757600080fd5b50610300610b87565b60405161030d9190613603565b60405180910390f35b34801561032257600080fd5b5061033d60048036038101906103389190612c15565b610b91565b60405161034a9190613603565b60405180910390f35b34801561035f57600080fd5b50610368610c49565b6040516103759190613389565b60405180910390f35b34801561038a57600080fd5b50610393610f6b565b6040516103a091906133c6565b60405180910390f35b6103c360048036038101906103be9190612e62565b610ffd565b005b3480156103d157600080fd5b506103ec60048036038101906103e79190612d44565b6111ef565b005b3480156103fa57600080fd5b50610403611205565b60405161041091906135e8565b60405180910390f35b34801561042557600080fd5b50610440600480360381019061043b9190612e62565b61131a565b60405161044d91906135e8565b60405180910390f35b34801561046257600080fd5b5061046b611422565b6040516104789190613603565b60405180910390f35b34801561048d57600080fd5b506104a860048036038101906104a39190612cc9565b611433565b005b6104c460048036038101906104bf9190612e62565b611495565b005b3480156104d257600080fd5b506104ed60048036038101906104e89190612e62565b61152f565b6040516104fa91906133c6565b60405180910390f35b34801561050f57600080fd5b5061052a60048036038101906105259190612c3e565b611541565b60405161053791906133ab565b60405180910390f35b60007f80ac58cd000000000000000000000000000000000000000000000000000000007bffffffffffffffffffffffffffffffffffffffffffffffffffffffff1916827bffffffffffffffffffffffffffffffffffffffffffffffffffffffff1916148061060b57507f5b5e139f000000000000000000000000000000000000000000000000000000007bffffffffffffffffffffffffffffffffffffffffffffffffffffffff1916827bffffffffffffffffffffffffffffffffffffffffffffffffffffffff1916145b8061061b575061061a826115d5565b5b9050919050565b60606000805461063190613873565b80601f016020809104026020016040519081016040528092919081815260200182805461065d90613873565b80156106aa5780601f1061067f576101008083540402835291602001916106aa565b820191906000526020600020905b81548152906001019060200180831161068d57829003601f168201915b5050505050905090565b60006106bf8261163f565b6004600083815260200190815260200160002060009054906101000a900473ffffffffffffffffffffffffffffffffffffffff169050919050565b600061070582610b00565b90508073ffffffffffffffffffffffffffffffffffffffff168373ffffffffffffffffffffffffffffffffffffffff161415610776576040517f08c379a000000000000000000000000000000000000000000000000000000000815260040161076d906135a8565b60405180910390fd5b8073ffffffffffffffffffffffffffffffffffffffff1661079561168a565b73ffffffffffffffffffffffffffffffffffffffff1614806107c457506107c3816107be61168a565b611541565b5b610803576040517f08c379a00000000000000000000000000000000000000000000000000000000081526004016107fa906135c8565b60405180910390fd5b61080d8383611692565b505050565b60606000610820600761174b565b905060008167ffffffffffffffff811115610864577f4e487b7100000000000000000000000000000000000000000000000000000000600052604160045260246000fd5b60405190808252806020026020018201604052801561089d57816020015b61088a6129dc565b8152602001906001900390816108825790505b5090506000805b83811015610a3b57600b600082815260200190815260200160002060040160009054906101000a900460ff1615610a28576000600b60008381526020019081526020016000209050806040518060a0016040529081600082015481526020016001820160009054906101000a900473ffffffffffffffffffffffffffffffffffffffff1673ffffffffffffffffffffffffffffffffffffffff1673ffffffffffffffffffffffffffffffffffffffff1681526020016002820160009054906101000a900473ffffffffffffffffffffffffffffffffffffffff1673ffffffffffffffffffffffffffffffffffffffff1673ffffffffffffffffffffffffffffffffffffffff168152602001600382015481526020016004820160009054906101000a900460ff161515151581525050848481518110610a0c577f4e487b7100000000000000000000000000000000000000000000000000000000600052603260045260246000fd5b6020026020010181905250600183610a249190613721565b9250505b8080610a33906138d6565b9150506108a4565b5081935050505090565b610a56610a5061168a565b82611759565b610a95576040517f08c379a0000000000000000000000000000000000000000000000000000000008152600401610a8c906133e8565b60405180910390fd5b610aa08383836117ee565b505050565b610ac083838360405180602001604052806000815250611433565b505050565b6000610ad1600761174b565b9050610add6007611ae8565b610ae73382611afe565b610af18184611b1c565b610afb8183611b90565b505050565b600080610b0c83611d49565b9050600073ffffffffffffffffffffffffffffffffffffffff168173ffffffffffffffffffffffffffffffffffffffff161415610b7e576040517f08c379a0000000000000000000000000000000000000000000000000000000008152600401610b7590613588565b60405180910390fd5b80915050919050565b6000600a54905090565b60008073ffffffffffffffffffffffffffffffffffffffff168273ffffffffffffffffffffffffffffffffffffffff161415610c02576040517f08c379a0000000000000000000000000000000000000000000000000000000008152600401610bf9906134e8565b60405180910390fd5b600360008373ffffffffffffffffffffffffffffffffffffffff1673ffffffffffffffffffffffffffffffffffffffff168152602001908152602001600020549050919050565b60606000610c57600761174b565b90506000805b82811015610cf2573373ffffffffffffffffffffffffffffffffffffffff16600b600083815260200190815260200160002060010160009054906101000a900473ffffffffffffffffffffffffffffffffffffffff1673ffffffffffffffffffffffffffffffffffffffff161415610cdf57600182610cdc9190613721565b91505b8080610cea906138d6565b915050610c5d565b5060008167ffffffffffffffff811115610d35577f4e487b7100000000000000000000000000000000000000000000000000000000600052604160045260246000fd5b604051908082528060200260200182016040528015610d6e57816020015b610d5b6129dc565b815260200190600190039081610d535790505b50905060005b83811015610f61573373ffffffffffffffffffffffffffffffffffffffff16600b600083815260200190815260200160002060020160009054906101000a900473ffffffffffffffffffffffffffffffffffffffff1673ffffffffffffffffffffffffffffffffffffffff161415610f3e576000600b60008381526020019081526020016000209050806040518060a0016040529081600082015481526020016001820160009054906101000a900473ffffffffffffffffffffffffffffffffffffffff1673ffffffffffffffffffffffffffffffffffffffff1673ffffffffffffffffffffffffffffffffffffffff1681526020016002820160009054906101000a900473ffffffffffffffffffffffffffffffffffffffff1673ffffffffffffffffffffffffffffffffffffffff1673ffffffffffffffffffffffffffffffffffffffff168152602001600382015481526020016004820160009054906101000a900460ff16151515158152505083600081518110610f1e577f4e487b7100000000000000000000000000000000000000000000000000000000600052603260045260246000fd5b6020026020010181905250600184610f369190613721565b935050610f4e565b600183610f4b9190613721565b92505b8080610f59906138d6565b915050610d74565b5080935050505090565b606060018054610f7a90613873565b80601f0160208091040260200160405190810160405280929190818152602001828054610fa690613873565b8015610ff35780601f10610fc857610100808354040283529160200191610ff3565b820191906000526020600020905b815481529060010190602001808311610fd657829003601f168201915b5050505050905090565b6000600b60008381526020019081526020016000206003015490506000600b600084815260200190815260200160002060020160009054906101000a900473ffffffffffffffffffffffffffffffffffffffff169050813414611095576040517f08c379a000000000000000000000000000000000000000000000000000000000815260040161108c90613528565b60405180910390fd5b6001600b600085815260200190815260200160002060040160006101000a81548160ff02191690831515021790555033600b600085815260200190815260200160002060020160006101000a81548173ffffffffffffffffffffffffffffffffffffffff021916908373ffffffffffffffffffffffffffffffffffffffff1602179055506111236008611ae8565b61112e3033856117ee565b61113830846106fa565b600960009054906101000a900473ffffffffffffffffffffffffffffffffffffffff1673ffffffffffffffffffffffffffffffffffffffff166108fc600a549081150290604051600060405180830381858888f193505050501580156111a2573d6000803e3d6000fd5b508073ffffffffffffffffffffffffffffffffffffffff166108fc349081150290604051600060405180830381858888f193505050501580156111e9573d6000803e3d6000fd5b50505050565b6112016111fa61168a565b8383611d86565b5050565b61120d6129dc565b6000611219600761174b565b9050600b60008281526020019081526020016000206040518060a0016040529081600082015481526020016001820160009054906101000a900473ffffffffffffffffffffffffffffffffffffffff1673ffffffffffffffffffffffffffffffffffffffff1673ffffffffffffffffffffffffffffffffffffffff1681526020016002820160009054906101000a900473ffffffffffffffffffffffffffffffffffffffff1673ffffffffffffffffffffffffffffffffffffffff1673ffffffffffffffffffffffffffffffffffffffff168152602001600382015481526020016004820160009054906101000a900460ff16151515158152505091505090565b6113226129dc565b600b60008381526020019081526020016000206040518060a0016040529081600082015481526020016001820160009054906101000a900473ffffffffffffffffffffffffffffffffffffffff1673ffffffffffffffffffffffffffffffffffffffff1673ffffffffffffffffffffffffffffffffffffffff1681526020016002820160009054906101000a900473ffffffffffffffffffffffffffffffffffffffff1673ffffffffffffffffffffffffffffffffffffffff1673ffffffffffffffffffffffffffffffffffffffff168152602001600382015481526020016004820160009054906101000a900460ff1615151515815250509050919050565b600061142e600761174b565b905090565b61144461143e61168a565b83611759565b611483576040517f08c379a000000000000000000000000000000000000000000000000000000000815260040161147a906133e8565b60405180910390fd5b61148f84848484611ef3565b50505050565b3373ffffffffffffffffffffffffffffffffffffffff16600960009054906101000a900473ffffffffffffffffffffffffffffffffffffffff1673ffffffffffffffffffffffffffffffffffffffff1614611525576040517f08c379a000000000000000000000000000000000000000000000000000000000815260040161151c906134c8565b60405180910390fd5b80600a8190555050565b606061153a82611f4f565b9050919050565b6000600560008473ffffffffffffffffffffffffffffffffffffffff1673ffffffffffffffffffffffffffffffffffffffff16815260200190815260200160002060008373ffffffffffffffffffffffffffffffffffffffff1673ffffffffffffffffffffffffffffffffffffffff16815260200190815260200160002060009054906101000a900460ff16905092915050565b60007f01ffc9a7000000000000000000000000000000000000000000000000000000007bffffffffffffffffffffffffffffffffffffffffffffffffffffffff1916827bffffffffffffffffffffffffffffffffffffffffffffffffffffffff1916149050919050565b61164881612062565b611687576040517f08c379a000000000000000000000000000000000000000000000000000000000815260040161167e90613588565b60405180910390fd5b50565b600033905090565b816004600083815260200190815260200160002060006101000a81548173ffffffffffffffffffffffffffffffffffffffff021916908373ffffffffffffffffffffffffffffffffffffffff160217905550808273ffffffffffffffffffffffffffffffffffffffff1661170583610b00565b73ffffffffffffffffffffffffffffffffffffffff167f8c5be1e5ebec7d5bd14f71427d1e84f3dd0314c0f7b2291e5b200ac8c7c3b92560405160405180910390a45050565b600081600001549050919050565b60008061176583610b00565b90508073ffffffffffffffffffffffffffffffffffffffff168473ffffffffffffffffffffffffffffffffffffffff1614806117a757506117a68185611541565b5b806117e557508373ffffffffffffffffffffffffffffffffffffffff166117cd846106b4565b73ffffffffffffffffffffffffffffffffffffffff16145b91505092915050565b8273ffffffffffffffffffffffffffffffffffffffff1661180e82610b00565b73ffffffffffffffffffffffffffffffffffffffff1614611864576040517f08c379a000000000000000000000000000000000000000000000000000000000815260040161185b90613428565b60405180910390fd5b600073ffffffffffffffffffffffffffffffffffffffff168273ffffffffffffffffffffffffffffffffffffffff1614156118d4576040517f08c379a00000000000000000000000000000000000000000000000000000000081526004016118cb90613468565b60405180910390fd5b6118e183838360016120a3565b8273ffffffffffffffffffffffffffffffffffffffff1661190182610b00565b73ffffffffffffffffffffffffffffffffffffffff1614611957576040517f08c379a000000000000000000000000000000000000000000000000000000000815260040161194e90613428565b60405180910390fd5b6004600082815260200190815260200160002060006101000a81549073ffffffffffffffffffffffffffffffffffffffff02191690556001600360008573ffffffffffffffffffffffffffffffffffffffff1673ffffffffffffffffffffffffffffffffffffffff168152602001908152602001600020600082825403925050819055506001600360008473ffffffffffffffffffffffffffffffffffffffff1673ffffffffffffffffffffffffffffffffffffffff16815260200190815260200160002060008282540192505081905550816002600083815260200190815260200160002060006101000a81548173ffffffffffffffffffffffffffffffffffffffff021916908373ffffffffffffffffffffffffffffffffffffffff160217905550808273ffffffffffffffffffffffffffffffffffffffff168473ffffffffffffffffffffffffffffffffffffffff167fddf252ad1be2c89b69c2b068fc378daa952ba7f163c4a11628f55a4df523b3ef60405160405180910390a4611ae383838360016121c9565b505050565b6001816000016000828254019250508190555050565b611b188282604051806020016040528060008152506121cf565b5050565b611b2582612062565b611b64576040517f08c379a0000000000000000000000000000000000000000000000000000000008152600401611b5b90613508565b60405180910390fd5b80600660008481526020019081526020016000209080519060200190611b8b929190612a39565b505050565b600a543414611bd4576040517f08c379a0000000000000000000000000000000000000000000000000000000008152600401611bcb906134a8565b60405180910390fd5b60008111611c17576040517f08c379a0000000000000000000000000000000000000000000000000000000008152600401611c0e90613568565b60405180910390fd5b6040518060a001604052808381526020013073ffffffffffffffffffffffffffffffffffffffff1681526020013373ffffffffffffffffffffffffffffffffffffffff16815260200182815260200160011515815250600b60008481526020019081526020016000206000820151816000015560208201518160010160006101000a81548173ffffffffffffffffffffffffffffffffffffffff021916908373ffffffffffffffffffffffffffffffffffffffff16021790555060408201518160020160006101000a81548173ffffffffffffffffffffffffffffffffffffffff021916908373ffffffffffffffffffffffffffffffffffffffff1602179055506060820151816003015560808201518160040160006101000a81548160ff0219169083151502179055509050505050565b60006002600083815260200190815260200160002060009054906101000a900473ffffffffffffffffffffffffffffffffffffffff169050919050565b8173ffffffffffffffffffffffffffffffffffffffff168373ffffffffffffffffffffffffffffffffffffffff161415611df5576040517f08c379a0000000000000000000000000000000000000000000000000000000008152600401611dec90613488565b60405180910390fd5b80600560008573ffffffffffffffffffffffffffffffffffffffff1673ffffffffffffffffffffffffffffffffffffffff16815260200190815260200160002060008473ffffffffffffffffffffffffffffffffffffffff1673ffffffffffffffffffffffffffffffffffffffff16815260200190815260200160002060006101000a81548160ff0219169083151502179055508173ffffffffffffffffffffffffffffffffffffffff168373ffffffffffffffffffffffffffffffffffffffff167f17307eab39ab6107e8899845ad3d59bd9653f200f220920489ca2b5937696c3183604051611ee691906133ab565b60405180910390a3505050565b611efe8484846117ee565b611f0a8484848461222a565b611f49576040517f08c379a0000000000000000000000000000000000000000000000000000000008152600401611f4090613408565b60405180910390fd5b50505050565b6060611f5a8261163f565b6000600660008481526020019081526020016000208054611f7a90613873565b80601f0160208091040260200160405190810160405280929190818152602001828054611fa690613873565b8015611ff35780601f10611fc857610100808354040283529160200191611ff3565b820191906000526020600020905b815481529060010190602001808311611fd657829003601f168201915b5050505050905060006120046123c1565b905060008151141561201a57819250505061205d565b60008251111561204f5780826040516020016120379291906132fe565b6040516020818303038152906040529250505061205d565b612058846123d8565b925050505b919050565b60008073ffffffffffffffffffffffffffffffffffffffff1661208483611d49565b73ffffffffffffffffffffffffffffffffffffffff1614159050919050565b60018111156121c357600073ffffffffffffffffffffffffffffffffffffffff168473ffffffffffffffffffffffffffffffffffffffff16146121375780600360008673ffffffffffffffffffffffffffffffffffffffff1673ffffffffffffffffffffffffffffffffffffffff168152602001908152602001600020600082825461212f9190613777565b925050819055505b600073ffffffffffffffffffffffffffffffffffffffff168373ffffffffffffffffffffffffffffffffffffffff16146121c25780600360008573ffffffffffffffffffffffffffffffffffffffff1673ffffffffffffffffffffffffffffffffffffffff16815260200190815260200160002060008282546121ba9190613721565b925050819055505b5b50505050565b50505050565b6121d98383612440565b6121e6600084848461222a565b612225576040517f08c379a000000000000000000000000000000000000000000000000000000000815260040161221c90613408565b60405180910390fd5b505050565b600061224b8473ffffffffffffffffffffffffffffffffffffffff1661265e565b156123b4578373ffffffffffffffffffffffffffffffffffffffff1663150b7a0261227461168a565b8786866040518563ffffffff1660e01b8152600401612296949392919061333d565b602060405180830381600087803b1580156122b057600080fd5b505af19250505080156122e157506040513d601f19601f820116820180604052508101906122de9190612de5565b60015b612364573d8060008114612311576040519150601f19603f3d011682016040523d82523d6000602084013e612316565b606091505b5060008151141561235c576040517f08c379a000000000000000000000000000000000000000000000000000000000815260040161235390613408565b60405180910390fd5b805181602001fd5b63150b7a0260e01b7bffffffffffffffffffffffffffffffffffffffffffffffffffffffff1916817bffffffffffffffffffffffffffffffffffffffffffffffffffffffff1916149150506123b9565b600190505b949350505050565b606060405180602001604052806000815250905090565b60606123e38261163f565b60006123ed6123c1565b9050600081511161240d5760405180602001604052806000815250612438565b8061241784612681565b6040516020016124289291906132fe565b6040516020818303038152906040525b915050919050565b600073ffffffffffffffffffffffffffffffffffffffff168273ffffffffffffffffffffffffffffffffffffffff1614156124b0576040517f08c379a00000000000000000000000000000000000000000000000000000000081526004016124a790613548565b60405180910390fd5b6124b981612062565b156124f9576040517f08c379a00000000000000000000000000000000000000000000000000000000081526004016124f090613448565b60405180910390fd5b6125076000838360016120a3565b61251081612062565b15612550576040517f08c379a000000000000000000000000000000000000000000000000000000000815260040161254790613448565b60405180910390fd5b6001600360008473ffffffffffffffffffffffffffffffffffffffff1673ffffffffffffffffffffffffffffffffffffffff16815260200190815260200160002060008282540192505081905550816002600083815260200190815260200160002060006101000a81548173ffffffffffffffffffffffffffffffffffffffff021916908373ffffffffffffffffffffffffffffffffffffffff160217905550808273ffffffffffffffffffffffffffffffffffffffff16600073ffffffffffffffffffffffffffffffffffffffff167fddf252ad1be2c89b69c2b068fc378daa952ba7f163c4a11628f55a4df523b3ef60405160405180910390a461265a6000838360016121c9565b5050565b6000808273ffffffffffffffffffffffffffffffffffffffff163b119050919050565b606060006001612690846127a5565b01905060008167ffffffffffffffff8111156126d5577f4e487b7100000000000000000000000000000000000000000000000000000000600052604160045260246000fd5b6040519080825280601f01601f1916602001820160405280156127075781602001600182028036833780820191505090505b509050600082602001820190505b60011561279a578080600190039150507f3031323334353637383961626364656600000000000000000000000000000000600a86061a8153600a8581612784577f4e487b7100000000000000000000000000000000000000000000000000000000600052601260045260246000fd5b04945060008514156127955761279a565b612715565b819350505050919050565b600080600090507a184f03e93ff9f4daa797ed6e38ed64bf6a1f0100000000000000008310612829577a184f03e93ff9f4daa797ed6e38ed64bf6a1f010000000000000000838161281f577f4e487b7100000000000000000000000000000000000000000000000000000000600052601260045260246000fd5b0492506040810190505b6d04ee2d6d415b85acef8100000000831061288c576d04ee2d6d415b85acef81000000008381612882577f4e487b7100000000000000000000000000000000000000000000000000000000600052601260045260246000fd5b0492506020810190505b662386f26fc1000083106128e157662386f26fc1000083816128d7577f4e487b7100000000000000000000000000000000000000000000000000000000600052601260045260246000fd5b0492506010810190505b6305f5e1008310612930576305f5e1008381612926577f4e487b7100000000000000000000000000000000000000000000000000000000600052601260045260246000fd5b0492506008810190505b612710831061297b576127108381612971577f4e487b7100000000000000000000000000000000000000000000000000000000600052601260045260246000fd5b0492506004810190505b606483106129c457606483816129ba577f4e487b7100000000000000000000000000000000000000000000000000000000600052601260045260246000fd5b0492506002810190505b600a83106129d3576001810190505b80915050919050565b6040518060a0016040528060008152602001600073ffffffffffffffffffffffffffffffffffffffff168152602001600073ffffffffffffffffffffffffffffffffffffffff168152602001600081526020016000151581525090565b828054612a4590613873565b90600052602060002090601f016020900481019282612a675760008555612aae565b82601f10612a8057805160ff1916838001178555612aae565b82800160010185558215612aae579182015b82811115612aad578251825591602001919060010190612a92565b5b509050612abb9190612abf565b5090565b5b80821115612ad8576000816000905550600101612ac0565b5090565b6000612aef612aea84613643565b61361e565b905082815260208101848484011115612b0757600080fd5b612b12848285613831565b509392505050565b6000612b2d612b2884613674565b61361e565b905082815260208101848484011115612b4557600080fd5b612b50848285613831565b509392505050565b600081359050612b6781613def565b92915050565b600081359050612b7c81613e06565b92915050565b600081359050612b9181613e1d565b92915050565b600081519050612ba681613e1d565b92915050565b600082601f830112612bbd57600080fd5b8135612bcd848260208601612adc565b91505092915050565b600082601f830112612be757600080fd5b8135612bf7848260208601612b1a565b91505092915050565b600081359050612c0f81613e34565b92915050565b600060208284031215612c2757600080fd5b6000612c3584828501612b58565b91505092915050565b60008060408385031215612c5157600080fd5b6000612c5f85828601612b58565b9250506020612c7085828601612b58565b9150509250929050565b600080600060608486031215612c8f57600080fd5b6000612c9d86828701612b58565b9350506020612cae86828701612b58565b9250506040612cbf86828701612c00565b9150509250925092565b60008060008060808587031215612cdf57600080fd5b6000612ced87828801612b58565b9450506020612cfe87828801612b58565b9350506040612d0f87828801612c00565b925050606085013567ffffffffffffffff811115612d2c57600080fd5b612d3887828801612bac565b91505092959194509250565b60008060408385031215612d5757600080fd5b6000612d6585828601612b58565b9250506020612d7685828601612b6d565b9150509250929050565b60008060408385031215612d9357600080fd5b6000612da185828601612b58565b9250506020612db285828601612c00565b9150509250929050565b600060208284031215612dce57600080fd5b6000612ddc84828501612b82565b91505092915050565b600060208284031215612df757600080fd5b6000612e0584828501612b97565b91505092915050565b60008060408385031215612e2157600080fd5b600083013567ffffffffffffffff811115612e3b57600080fd5b612e4785828601612bd6565b9250506020612e5885828601612c00565b9150509250929050565b600060208284031215612e7457600080fd5b6000612e8284828501612c00565b91505092915050565b6000612e978383613210565b60a08301905092915050565b612eac816137bd565b82525050565b612ebb816137ab565b82525050565b6000612ecc826136b5565b612ed681856136e3565b9350612ee1836136a5565b8060005b83811015612f12578151612ef98882612e8b565b9750612f04836136d6565b925050600181019050612ee5565b5085935050505092915050565b612f28816137cf565b82525050565b612f37816137cf565b82525050565b6000612f48826136c0565b612f5281856136f4565b9350612f62818560208601613840565b612f6b816139ac565b840191505092915050565b6000612f81826136cb565b612f8b8185613705565b9350612f9b818560208601613840565b612fa4816139ac565b840191505092915050565b6000612fba826136cb565b612fc48185613716565b9350612fd4818560208601613840565b80840191505092915050565b6000612fed602d83613705565b9150612ff8826139bd565b604082019050919050565b6000613010603283613705565b915061301b82613a0c565b604082019050919050565b6000613033602583613705565b915061303e82613a5b565b604082019050919050565b6000613056601c83613705565b915061306182613aaa565b602082019050919050565b6000613079602483613705565b915061308482613ad3565b604082019050919050565b600061309c601983613705565b91506130a782613b22565b602082019050919050565b60006130bf601683613705565b91506130ca82613b4b565b602082019050919050565b60006130e2602383613705565b91506130ed82613b74565b604082019050919050565b6000613105602983613705565b915061311082613bc3565b604082019050919050565b6000613128602e83613705565b915061313382613c12565b604082019050919050565b600061314b604083613705565b915061315682613c61565b604082019050919050565b600061316e602083613705565b915061317982613cb0565b602082019050919050565b6000613191602783613705565b915061319c82613cd9565b604082019050919050565b60006131b4601883613705565b91506131bf82613d28565b602082019050919050565b60006131d7602183613705565b91506131e282613d51565b604082019050919050565b60006131fa603d83613705565b915061320582613da0565b604082019050919050565b60a08201600082015161322660008501826132e0565b5060208201516132396020850182612ea3565b50604082015161324c6040850182612ea3565b50606082015161325f60608501826132e0565b5060808201516132726080850182612f1f565b50505050565b60a08201600082015161328e60008501826132e0565b5060208201516132a16020850182612ea3565b5060408201516132b46040850182612ea3565b5060608201516132c760608501826132e0565b5060808201516132da6080850182612f1f565b50505050565b6132e981613827565b82525050565b6132f881613827565b82525050565b600061330a8285612faf565b91506133168284612faf565b91508190509392505050565b60006020820190506133376000830184612eb2565b92915050565b60006080820190506133526000830187612eb2565b61335f6020830186612eb2565b61336c60408301856132ef565b818103606083015261337e8184612f3d565b905095945050505050565b600060208201905081810360008301526133a38184612ec1565b905092915050565b60006020820190506133c06000830184612f2e565b92915050565b600060208201905081810360008301526133e08184612f76565b905092915050565b6000602082019050818103600083015261340181612fe0565b9050919050565b6000602082019050818103600083015261342181613003565b9050919050565b6000602082019050818103600083015261344181613026565b9050919050565b6000602082019050818103600083015261346181613049565b9050919050565b600060208201905081810360008301526134818161306c565b9050919050565b600060208201905081810360008301526134a18161308f565b9050919050565b600060208201905081810360008301526134c1816130b2565b9050919050565b600060208201905081810360008301526134e1816130d5565b9050919050565b60006020820190508181036000830152613501816130f8565b9050919050565b600060208201905081810360008301526135218161311b565b9050919050565b600060208201905081810360008301526135418161313e565b9050919050565b6000602082019050818103600083015261356181613161565b9050919050565b6000602082019050818103600083015261358181613184565b9050919050565b600060208201905081810360008301526135a1816131a7565b9050919050565b600060208201905081810360008301526135c1816131ca565b9050919050565b600060208201905081810360008301526135e1816131ed565b9050919050565b600060a0820190506135fd6000830184613278565b92915050565b600060208201905061361860008301846132ef565b92915050565b6000613628613639565b905061363482826138a5565b919050565b6000604051905090565b600067ffffffffffffffff82111561365e5761365d61397d565b5b613667826139ac565b9050602081019050919050565b600067ffffffffffffffff82111561368f5761368e61397d565b5b613698826139ac565b9050602081019050919050565b6000819050602082019050919050565b600081519050919050565b600081519050919050565b600081519050919050565b6000602082019050919050565b600082825260208201905092915050565b600082825260208201905092915050565b600082825260208201905092915050565b600081905092915050565b600061372c82613827565b915061373783613827565b9250827fffffffffffffffffffffffffffffffffffffffffffffffffffffffffffffffff0382111561376c5761376b61391f565b5b828201905092915050565b600061378282613827565b915061378d83613827565b9250828210156137a05761379f61391f565b5b828203905092915050565b60006137b682613807565b9050919050565b60006137c882613807565b9050919050565b60008115159050919050565b60007fffffffff0000000000000000000000000000000000000000000000000000000082169050919050565b600073ffffffffffffffffffffffffffffffffffffffff82169050919050565b6000819050919050565b82818337600083830152505050565b60005b8381101561385e578082015181840152602081019050613843565b8381111561386d576000848401525b50505050565b6000600282049050600182168061388b57607f821691505b6020821081141561389f5761389e61394e565b5b50919050565b6138ae826139ac565b810181811067ffffffffffffffff821117156138cd576138cc61397d565b5b80604052505050565b60006138e182613827565b91507fffffffffffffffffffffffffffffffffffffffffffffffffffffffffffffffff8214156139145761391361391f565b5b600182019050919050565b7f4e487b7100000000000000000000000000000000000000000000000000000000600052601160045260246000fd5b7f4e487b7100000000000000000000000000000000000000000000000000000000600052602260045260246000fd5b7f4e487b7100000000000000000000000000000000000000000000000000000000600052604160045260246000fd5b6000601f19601f8301169050919050565b7f4552433732313a2063616c6c6572206973206e6f7420746f6b656e206f776e6560008201527f72206f7220617070726f76656400000000000000000000000000000000000000602082015250565b7f4552433732313a207472616e7366657220746f206e6f6e20455243373231526560008201527f63656976657220696d706c656d656e7465720000000000000000000000000000602082015250565b7f4552433732313a207472616e736665722066726f6d20696e636f72726563742060008201527f6f776e6572000000000000000000000000000000000000000000000000000000602082015250565b7f4552433732313a20746f6b656e20616c7265616479206d696e74656400000000600082015250565b7f4552433732313a207472616e7366657220746f20746865207a65726f2061646460008201527f7265737300000000000000000000000000000000000000000000000000000000602082015250565b7f4552433732313a20617070726f766520746f2063616c6c657200000000000000600082015250565b7f4e6f7420656e6f7567682045544820746f206c69737400000000000000000000600082015250565b7f4f6e6c79206f776e65722063616e20757064617465206c697374696e6720707260008201527f6963650000000000000000000000000000000000000000000000000000000000602082015250565b7f4552433732313a2061646472657373207a65726f206973206e6f74206120766160008201527f6c6964206f776e65720000000000000000000000000000000000000000000000602082015250565b7f45524337323155524953746f726167653a2055524920736574206f66206e6f6e60008201527f6578697374656e7420746f6b656e000000000000000000000000000000000000602082015250565b7f506c65617365207375626d6974207468652061736b696e67207072696365206960008201527f6e206f7264657220746f20636f6d706c65746520746865207075726368617365602082015250565b7f4552433732313a206d696e7420746f20746865207a65726f2061646472657373600082015250565b7f4d616b6520737572652074686174207468652070726963652069736e2774206e60008201527f6567617469766500000000000000000000000000000000000000000000000000602082015250565b7f4552433732313a20696e76616c696420746f6b656e2049440000000000000000600082015250565b7f4552433732313a20617070726f76616c20746f2063757272656e74206f776e6560008201527f7200000000000000000000000000000000000000000000000000000000000000602082015250565b7f4552433732313a20617070726f76652063616c6c6572206973206e6f7420746f60008201527f6b656e206f776e6572206f7220617070726f76656420666f7220616c6c000000602082015250565b613df8816137ab565b8114613e0357600080fd5b50565b613e0f816137cf565b8114613e1a57600080fd5b50565b613e26816137db565b8114613e3157600080fd5b50565b613e3d81613827565b8114613e4857600080fd5b5056fea2646970667358221220fc5a1c268deab05149cc680ead77e5618fee8382e1a80822f5d0b6f706a8fb4264736f6c63430008040033",
  "linkReferences": {},
  "deployedLinkReferences": {}
}