{
  "_format": "hh-sol-artifact-1",
  "contractName": "NoteMarketplace",
  "sourceName": "contracts/NoteMarketplace.sol",
  "abi": [
    {
      "inputs": [],
      "stateMutability": "nonpayable",
      "type": "constructor"
    },
    {
      "anonymous": false,
      "inputs": [
        {
          "indexed": true,
          "internalType": "address",
          "name": "owner",
          "type": "address"
        },
        {
          "indexed": true,
          "internalType": "address",
          "name": "approved",
          "type": "address"
        },
        {
          "indexed": true,
          "internalType": "uint256",
          "name": "tokenId",
          "type": "uint256"
        }
      ],
      "name": "Approval",
      "type": "event"
    },
    {
      "anonymous": false,
      "inputs": [
        {
          "indexed": true,
          "internalType": "address",
          "name": "owner",
          "type": "address"
        },
        {
          "indexed": true,
          "internalType": "address",
          "name": "operator",
          "type": "address"
        },
        {
          "indexed": false,
          "internalType": "bool",
          "name": "approved",
          "type": "bool"
        }
      ],
      "name": "ApprovalForAll",
      "type": "event"
    },
    {
      "anonymous": false,
      "inputs": [
        {
          "indexed": true,
          "internalType": "uint256",
          "name": "tokenId",
          "type": "uint256"
        },
        {
          "indexed": false,
          "internalType": "address",
          "name": "owner",
          "type": "address"
        },
        {
          "indexed": false,
          "internalType": "address",
          "name": "seller",
          "type": "address"
        },
        {
          "indexed": false,
          "internalType": "uint256",
          "name": "price",
          "type": "uint256"
        },
        {
          "indexed": false,
          "internalType": "bool",
          "name": "currentlyListed",
          "type": "bool"
        }
      ],
      "name": "NoteListedSuccess",
      "type": "event"
    },
    {
      "anonymous": false,
      "inputs": [
        {
          "indexed": true,
          "internalType": "address",
          "name": "from",
          "type": "address"
        },
        {
          "indexed": true,
          "internalType": "address",
          "name": "to",
          "type": "address"
        },
        {
          "indexed": true,
          "internalType": "uint256",
          "name": "tokenId",
          "type": "uint256"
        }
      ],
      "name": "Transfer",
      "type": "event"
    },
    {
      "inputs": [
        {
          "internalType": "address",
          "name": "to",
          "type": "address"
        },
        {
          "internalType": "uint256",
          "name": "tokenId",
          "type": "uint256"
        }
      ],
      "name": "approve",
      "outputs": [],
      "stateMutability": "nonpayable",
      "type": "function"
    },
    {
      "inputs": [
        {
          "internalType": "address",
          "name": "owner",
          "type": "address"
        }
      ],
      "name": "balanceOf",
      "outputs": [
        {
          "internalType": "uint256",
          "name": "",
          "type": "uint256"
        }
      ],
      "stateMutability": "view",
      "type": "function"
    },
    {
      "inputs": [
        {
          "internalType": "uint256",
          "name": "tokenId",
          "type": "uint256"
        }
      ],
      "name": "executeSale",
      "outputs": [],
      "stateMutability": "payable",
      "type": "function"
    },
    {
      "inputs": [],
      "name": "getAllListedNotes",
      "outputs": [
        {
          "components": [
            {
              "internalType": "uint256",
              "name": "tokenId",
              "type": "uint256"
            },
            {
              "internalType": "address payable",
              "name": "owner",
              "type": "address"
            },
            {
              "internalType": "address payable",
              "name": "seller",
              "type": "address"
            },
            {
              "internalType": "uint256",
              "name": "price",
              "type": "uint256"
            },
            {
              "internalType": "bool",
              "name": "currentlyListed",
              "type": "bool"
            }
          ],
          "internalType": "struct NoteMarketplace.ListedNote[]",
          "name": "",
          "type": "tuple[]"
        }
      ],
      "stateMutability": "view",
      "type": "function"
    },
    {
      "inputs": [
        {
          "internalType": "uint256",
          "name": "tokenId",
          "type": "uint256"
        }
      ],
      "name": "getApproved",
      "outputs": [
        {
          "internalType": "address",
          "name": "",
          "type": "address"
        }
      ],
      "stateMutability": "view",
      "type": "function"
    },
    {
      "inputs": [],
      "name": "getCurrentNote",
      "outputs": [
        {
          "internalType": "uint256",
          "name": "",
          "type": "uint256"
        }
      ],
      "stateMutability": "view",
      "type": "function"
    },
    {
      "inputs": [],
      "name": "getLatestIdToListedNote",
      "outputs": [
        {
          "components": [
            {
              "internalType": "uint256",
              "name": "tokenId",
              "type": "uint256"
            },
            {
              "internalType": "address payable",
              "name": "owner",
              "type": "address"
            },
            {
              "internalType": "address payable",
              "name": "seller",
              "type": "address"
            },
            {
              "internalType": "uint256",
              "name": "price",
              "type": "uint256"
            },
            {
              "internalType": "bool",
              "name": "currentlyListed",
              "type": "bool"
            }
          ],
          "internalType": "struct NoteMarketplace.ListedNote",
          "name": "",
          "type": "tuple"
        }
      ],
      "stateMutability": "view",
      "type": "function"
    },
    {
      "inputs": [
        {
          "internalType": "uint256",
          "name": "tokenId",
          "type": "uint256"
        }
      ],
      "name": "getListedNoteForId",
      "outputs": [
        {
          "components": [
            {
              "internalType": "uint256",
              "name": "tokenId",
              "type": "uint256"
            },
            {
              "internalType": "address payable",
              "name": "owner",
              "type": "address"
            },
            {
              "internalType": "address payable",
              "name": "seller",
              "type": "address"
            },
            {
              "internalType": "uint256",
              "name": "price",
              "type": "uint256"
            },
            {
              "internalType": "bool",
              "name": "currentlyListed",
              "type": "bool"
            }
          ],
          "internalType": "struct NoteMarketplace.ListedNote",
          "name": "",
          "type": "tuple"
        }
      ],
      "stateMutability": "view",
      "type": "function"
    },
    {
      "inputs": [],
      "name": "getMyNotes",
      "outputs": [
        {
          "components": [
            {
              "internalType": "uint256",
              "name": "tokenId",
              "type": "uint256"
            },
            {
              "internalType": "address payable",
              "name": "owner",
              "type": "address"
            },
            {
              "internalType": "address payable",
              "name": "seller",
              "type": "address"
            },
            {
              "internalType": "uint256",
              "name": "price",
              "type": "uint256"
            },
            {
              "internalType": "bool",
              "name": "currentlyListed",
              "type": "bool"
            }
          ],
          "internalType": "struct NoteMarketplace.ListedNote[]",
          "name": "",
          "type": "tuple[]"
        }
      ],
      "stateMutability": "view",
      "type": "function"
    },
    {
      "inputs": [
        {
          "internalType": "address",
          "name": "owner",
          "type": "address"
        },
        {
          "internalType": "address",
          "name": "operator",
          "type": "address"
        }
      ],
      "name": "isApprovedForAll",
      "outputs": [
        {
          "internalType": "bool",
          "name": "",
          "type": "bool"
        }
      ],
      "stateMutability": "view",
      "type": "function"
    },
    {
      "inputs": [],
      "name": "name",
      "outputs": [
        {
          "internalType": "string",
          "name": "",
          "type": "string"
        }
      ],
      "stateMutability": "view",
      "type": "function"
    },
    {
      "inputs": [
        {
          "internalType": "string",
          "name": "uri",
          "type": "string"
        },
        {
          "internalType": "uint256",
          "name": "price",
          "type": "uint256"
        }
      ],
      "name": "noteMint",
      "outputs": [],
      "stateMutability": "nonpayable",
      "type": "function"
    },
    {
      "inputs": [
        {
          "internalType": "uint256",
          "name": "tokenId",
          "type": "uint256"
        }
      ],
      "name": "ownerOf",
      "outputs": [
        {
          "internalType": "address",
          "name": "",
          "type": "address"
        }
      ],
      "stateMutability": "view",
      "type": "function"
    },
    {
      "inputs": [
        {
          "internalType": "address",
          "name": "from",
          "type": "address"
        },
        {
          "internalType": "address",
          "name": "to",
          "type": "address"
        },
        {
          "internalType": "uint256",
          "name": "tokenId",
          "type": "uint256"
        }
      ],
      "name": "safeTransferFrom",
      "outputs": [],
      "stateMutability": "nonpayable",
      "type": "function"
    },
    {
      "inputs": [
        {
          "internalType": "address",
          "name": "from",
          "type": "address"
        },
        {
          "internalType": "address",
          "name": "to",
          "type": "address"
        },
        {
          "internalType": "uint256",
          "name": "tokenId",
          "type": "uint256"
        },
        {
          "internalType": "bytes",
          "name": "data",
          "type": "bytes"
        }
      ],
      "name": "safeTransferFrom",
      "outputs": [],
      "stateMutability": "nonpayable",
      "type": "function"
    },
    {
      "inputs": [
        {
          "internalType": "address",
          "name": "operator",
          "type": "address"
        },
        {
          "internalType": "bool",
          "name": "approved",
          "type": "bool"
        }
      ],
      "name": "setApprovalForAll",
      "outputs": [],
      "stateMutability": "nonpayable",
      "type": "function"
    },
    {
      "inputs": [
        {
          "internalType": "bytes4",
          "name": "interfaceId",
          "type": "bytes4"
        }
      ],
      "name": "supportsInterface",
      "outputs": [
        {
          "internalType": "bool",
          "name": "",
          "type": "bool"
        }
      ],
      "stateMutability": "view",
      "type": "function"
    },
    {
      "inputs": [],
      "name": "symbol",
      "outputs": [
        {
          "internalType": "string",
          "name": "",
          "type": "string"
        }
      ],
      "stateMutability": "view",
      "type": "function"
    },
    {
      "inputs": [
        {
          "internalType": "uint256",
          "name": "tokenId",
          "type": "uint256"
        }
      ],
      "name": "tokenURI",
      "outputs": [
        {
          "internalType": "string",
          "name": "",
          "type": "string"
        }
      ],
      "stateMutability": "view",
      "type": "function"
    },
    {
      "inputs": [
        {
          "internalType": "address",
          "name": "from",
          "type": "address"
        },
        {
          "internalType": "address",
          "name": "to",
          "type": "address"
        },
        {
          "internalType": "uint256",
          "name": "tokenId",
          "type": "uint256"
        }
      ],
      "name": "transferFrom",
      "outputs": [],
      "stateMutability": "nonpayable",
      "type": "function"
    }
  ],
  "bytecode": "0x60806040523480156200001157600080fd5b506040518060400160405280600f81526020017f4e6f74654d61726b6574706c61636500000000000000000000000000000000008152506040518060400160405280600381526020017f4e4d500000000000000000000000000000000000000000000000000000000000815250816000908051906020019062000096929190620000f9565b508060019080519060200190620000af929190620000f9565b50505033600960006101000a81548173ffffffffffffffffffffffffffffffffffffffff021916908373ffffffffffffffffffffffffffffffffffffffff1602179055506200020e565b8280546200010790620001a9565b90600052602060002090601f0160209004810192826200012b576000855562000177565b82601f106200014657805160ff191683800117855562000177565b8280016001018555821562000177579182015b828111156200017657825182559160200191906001019062000159565b5b5090506200018691906200018a565b5090565b5b80821115620001a55760008160009055506001016200018b565b5090565b60006002820490506001821680620001c257607f821691505b60208210811415620001d957620001d8620001df565b5b50919050565b7f4e487b7100000000000000000000000000000000000000000000000000000000600052602260045260246000fd5b613bd3806200021e6000396000f3fe60806040526004361061011f5760003560e01c806386f17bb7116100a0578063b01e0f3711610064578063b01e0f37146103d8578063b5494e4714610415578063b88d4fde14610440578063c87b56dd14610469578063e985e9c5146104a65761011f565b806386f17bb71461031257806395d89b411461033d5780639b1225c414610368578063a22cb46514610384578063ae34d23a146103ad5761011f565b806323b872dd116100e757806323b872dd1461021d57806342842e0e146102465780635947e0b81461026f5780636352211e1461029857806370a08231146102d55761011f565b806301ffc9a71461012457806306fdde0314610161578063081812fc1461018c578063095ea7b3146101c95780630996caa0146101f2575b600080fd5b34801561013057600080fd5b5061014b60048036038101906101469190612c0c565b6104e3565b60405161015891906131b5565b60405180910390f35b34801561016d57600080fd5b506101766105c5565b60405161018391906131d0565b60405180910390f35b34801561019857600080fd5b506101b360048036038101906101ae9190612cb2565b610657565b6040516101c0919061312c565b60405180910390f35b3480156101d557600080fd5b506101f060048036038101906101eb9190612bd0565b61069d565b005b3480156101fe57600080fd5b506102076107b5565b6040516102149190613193565b60405180910390f35b34801561022957600080fd5b50610244600480360381019061023f9190612aca565b6109e8565b005b34801561025257600080fd5b5061026d60048036038101906102689190612aca565b610a48565b005b34801561027b57600080fd5b5061029660048036038101906102919190612c5e565b610a68565b005b3480156102a457600080fd5b506102bf60048036038101906102ba9190612cb2565b610aa3565b6040516102cc919061312c565b60405180910390f35b3480156102e157600080fd5b506102fc60048036038101906102f79190612a65565b610b2a565b60405161030991906133cd565b60405180910390f35b34801561031e57600080fd5b50610327610be2565b6040516103349190613193565b60405180910390f35b34801561034957600080fd5b50610352610f04565b60405161035f91906131d0565b60405180910390f35b610382600480360381019061037d9190612cb2565b610f96565b005b34801561039057600080fd5b506103ab60048036038101906103a69190612b94565b61111d565b005b3480156103b957600080fd5b506103c2611133565b6040516103cf91906133b2565b60405180910390f35b3480156103e457600080fd5b506103ff60048036038101906103fa9190612cb2565b611248565b60405161040c91906133b2565b60405180910390f35b34801561042157600080fd5b5061042a611350565b60405161043791906133cd565b60405180910390f35b34801561044c57600080fd5b5061046760048036038101906104629190612b19565b611361565b005b34801561047557600080fd5b50610490600480360381019061048b9190612cb2565b6113c3565b60405161049d91906131d0565b60405180910390f35b3480156104b257600080fd5b506104cd60048036038101906104c89190612a8e565b6113d5565b6040516104da91906131b5565b60405180910390f35b60007f80ac58cd000000000000000000000000000000000000000000000000000000007bffffffffffffffffffffffffffffffffffffffffffffffffffffffff1916827bffffffffffffffffffffffffffffffffffffffffffffffffffffffff191614806105ae57507f5b5e139f000000000000000000000000000000000000000000000000000000007bffffffffffffffffffffffffffffffffffffffffffffffffffffffff1916827bffffffffffffffffffffffffffffffffffffffffffffffffffffffff1916145b806105be57506105bd82611469565b5b9050919050565b6060600080546105d49061363d565b80601f01602080910402602001604051908101604052809291908181526020018280546106009061363d565b801561064d5780601f106106225761010080835404028352916020019161064d565b820191906000526020600020905b81548152906001019060200180831161063057829003601f168201915b5050505050905090565b6000610662826114d3565b6004600083815260200190815260200160002060009054906101000a900473ffffffffffffffffffffffffffffffffffffffff169050919050565b60006106a882610aa3565b90508073ffffffffffffffffffffffffffffffffffffffff168373ffffffffffffffffffffffffffffffffffffffff161415610719576040517f08c379a000000000000000000000000000000000000000000000000000000000815260040161071090613372565b60405180910390fd5b8073ffffffffffffffffffffffffffffffffffffffff1661073861151e565b73ffffffffffffffffffffffffffffffffffffffff16148061076757506107668161076161151e565b6113d5565b5b6107a6576040517f08c379a000000000000000000000000000000000000000000000000000000000815260040161079d90613392565b60405180910390fd5b6107b08383611526565b505050565b606060006107c360076115df565b905060008167ffffffffffffffff811115610807577f4e487b7100000000000000000000000000000000000000000000000000000000600052604160045260246000fd5b60405190808252806020026020018201604052801561084057816020015b61082d61282c565b8152602001906001900390816108255790505b5090506000805b838110156109de57600a600082815260200190815260200160002060040160009054906101000a900460ff16156109cb576000600a60008381526020019081526020016000209050806040518060a0016040529081600082015481526020016001820160009054906101000a900473ffffffffffffffffffffffffffffffffffffffff1673ffffffffffffffffffffffffffffffffffffffff1673ffffffffffffffffffffffffffffffffffffffff1681526020016002820160009054906101000a900473ffffffffffffffffffffffffffffffffffffffff1673ffffffffffffffffffffffffffffffffffffffff1673ffffffffffffffffffffffffffffffffffffffff168152602001600382015481526020016004820160009054906101000a900460ff1615151515815250508484815181106109af577f4e487b7100000000000000000000000000000000000000000000000000000000600052603260045260246000fd5b60200260200101819052506001836109c791906134eb565b9250505b80806109d6906136a0565b915050610847565b5081935050505090565b6109f96109f361151e565b826115ed565b610a38576040517f08c379a0000000000000000000000000000000000000000000000000000000008152600401610a2f906131f2565b60405180910390fd5b610a43838383611682565b505050565b610a6383838360405180602001604052806000815250611361565b505050565b6000610a7460076115df565b9050610a80600761197c565b610a8a3382611992565b610a9481846119b0565b610a9e8183611a24565b505050565b600080610aaf83611b99565b9050600073ffffffffffffffffffffffffffffffffffffffff168173ffffffffffffffffffffffffffffffffffffffff161415610b21576040517f08c379a0000000000000000000000000000000000000000000000000000000008152600401610b1890613352565b60405180910390fd5b80915050919050565b60008073ffffffffffffffffffffffffffffffffffffffff168273ffffffffffffffffffffffffffffffffffffffff161415610b9b576040517f08c379a0000000000000000000000000000000000000000000000000000000008152600401610b92906132b2565b60405180910390fd5b600360008373ffffffffffffffffffffffffffffffffffffffff1673ffffffffffffffffffffffffffffffffffffffff168152602001908152602001600020549050919050565b60606000610bf060076115df565b90506000805b82811015610c8b573373ffffffffffffffffffffffffffffffffffffffff16600a600083815260200190815260200160002060010160009054906101000a900473ffffffffffffffffffffffffffffffffffffffff1673ffffffffffffffffffffffffffffffffffffffff161415610c7857600182610c7591906134eb565b91505b8080610c83906136a0565b915050610bf6565b5060008167ffffffffffffffff811115610cce577f4e487b7100000000000000000000000000000000000000000000000000000000600052604160045260246000fd5b604051908082528060200260200182016040528015610d0757816020015b610cf461282c565b815260200190600190039081610cec5790505b50905060005b83811015610efa573373ffffffffffffffffffffffffffffffffffffffff16600a600083815260200190815260200160002060020160009054906101000a900473ffffffffffffffffffffffffffffffffffffffff1673ffffffffffffffffffffffffffffffffffffffff161415610ed7576000600a60008381526020019081526020016000209050806040518060a0016040529081600082015481526020016001820160009054906101000a900473ffffffffffffffffffffffffffffffffffffffff1673ffffffffffffffffffffffffffffffffffffffff1673ffffffffffffffffffffffffffffffffffffffff1681526020016002820160009054906101000a900473ffffffffffffffffffffffffffffffffffffffff1673ffffffffffffffffffffffffffffffffffffffff1673ffffffffffffffffffffffffffffffffffffffff168152602001600382015481526020016004820160009054906101000a900460ff16151515158152505083600081518110610eb7577f4e487b7100000000000000000000000000000000000000000000000000000000600052603260045260246000fd5b6020026020010181905250600184610ecf91906134eb565b935050610ee7565b600183610ee491906134eb565b92505b8080610ef2906136a0565b915050610d0d565b5080935050505090565b606060018054610f139061363d565b80601f0160208091040260200160405190810160405280929190818152602001828054610f3f9061363d565b8015610f8c5780601f10610f6157610100808354040283529160200191610f8c565b820191906000526020600020905b815481529060010190602001808311610f6f57829003601f168201915b5050505050905090565b6000600a60008381526020019081526020016000206003015490506000600a600084815260200190815260200160002060020160009054906101000a900473ffffffffffffffffffffffffffffffffffffffff16905081341461102e576040517f08c379a0000000000000000000000000000000000000000000000000000000008152600401611025906132f2565b60405180910390fd5b6001600a600085815260200190815260200160002060040160006101000a81548160ff02191690831515021790555033600a600085815260200190815260200160002060020160006101000a81548173ffffffffffffffffffffffffffffffffffffffff021916908373ffffffffffffffffffffffffffffffffffffffff1602179055506110bc600861197c565b6110c7303385611682565b6110d1308461069d565b8073ffffffffffffffffffffffffffffffffffffffff166108fc349081150290604051600060405180830381858888f19350505050158015611117573d6000803e3d6000fd5b50505050565b61112f61112861151e565b8383611bd6565b5050565b61113b61282c565b600061114760076115df565b9050600a60008281526020019081526020016000206040518060a0016040529081600082015481526020016001820160009054906101000a900473ffffffffffffffffffffffffffffffffffffffff1673ffffffffffffffffffffffffffffffffffffffff1673ffffffffffffffffffffffffffffffffffffffff1681526020016002820160009054906101000a900473ffffffffffffffffffffffffffffffffffffffff1673ffffffffffffffffffffffffffffffffffffffff1673ffffffffffffffffffffffffffffffffffffffff168152602001600382015481526020016004820160009054906101000a900460ff16151515158152505091505090565b61125061282c565b600a60008381526020019081526020016000206040518060a0016040529081600082015481526020016001820160009054906101000a900473ffffffffffffffffffffffffffffffffffffffff1673ffffffffffffffffffffffffffffffffffffffff1673ffffffffffffffffffffffffffffffffffffffff1681526020016002820160009054906101000a900473ffffffffffffffffffffffffffffffffffffffff1673ffffffffffffffffffffffffffffffffffffffff1673ffffffffffffffffffffffffffffffffffffffff168152602001600382015481526020016004820160009054906101000a900460ff1615151515815250509050919050565b600061135c60076115df565b905090565b61137261136c61151e565b836115ed565b6113b1576040517f08c379a00000000000000000000000000000000000000000000000000000000081526004016113a8906131f2565b60405180910390fd5b6113bd84848484611d43565b50505050565b60606113ce82611d9f565b9050919050565b6000600560008473ffffffffffffffffffffffffffffffffffffffff1673ffffffffffffffffffffffffffffffffffffffff16815260200190815260200160002060008373ffffffffffffffffffffffffffffffffffffffff1673ffffffffffffffffffffffffffffffffffffffff16815260200190815260200160002060009054906101000a900460ff16905092915050565b60007f01ffc9a7000000000000000000000000000000000000000000000000000000007bffffffffffffffffffffffffffffffffffffffffffffffffffffffff1916827bffffffffffffffffffffffffffffffffffffffffffffffffffffffff1916149050919050565b6114dc81611eb2565b61151b576040517f08c379a000000000000000000000000000000000000000000000000000000000815260040161151290613352565b60405180910390fd5b50565b600033905090565b816004600083815260200190815260200160002060006101000a81548173ffffffffffffffffffffffffffffffffffffffff021916908373ffffffffffffffffffffffffffffffffffffffff160217905550808273ffffffffffffffffffffffffffffffffffffffff1661159983610aa3565b73ffffffffffffffffffffffffffffffffffffffff167f8c5be1e5ebec7d5bd14f71427d1e84f3dd0314c0f7b2291e5b200ac8c7c3b92560405160405180910390a45050565b600081600001549050919050565b6000806115f983610aa3565b90508073ffffffffffffffffffffffffffffffffffffffff168473ffffffffffffffffffffffffffffffffffffffff16148061163b575061163a81856113d5565b5b8061167957508373ffffffffffffffffffffffffffffffffffffffff1661166184610657565b73ffffffffffffffffffffffffffffffffffffffff16145b91505092915050565b8273ffffffffffffffffffffffffffffffffffffffff166116a282610aa3565b73ffffffffffffffffffffffffffffffffffffffff16146116f8576040517f08c379a00000000000000000000000000000000000000000000000000000000081526004016116ef90613232565b60405180910390fd5b600073ffffffffffffffffffffffffffffffffffffffff168273ffffffffffffffffffffffffffffffffffffffff161415611768576040517f08c379a000000000000000000000000000000000000000000000000000000000815260040161175f90613272565b60405180910390fd5b6117758383836001611ef3565b8273ffffffffffffffffffffffffffffffffffffffff1661179582610aa3565b73ffffffffffffffffffffffffffffffffffffffff16146117eb576040517f08c379a00000000000000000000000000000000000000000000000000000000081526004016117e290613232565b60405180910390fd5b6004600082815260200190815260200160002060006101000a81549073ffffffffffffffffffffffffffffffffffffffff02191690556001600360008573ffffffffffffffffffffffffffffffffffffffff1673ffffffffffffffffffffffffffffffffffffffff168152602001908152602001600020600082825403925050819055506001600360008473ffffffffffffffffffffffffffffffffffffffff1673ffffffffffffffffffffffffffffffffffffffff16815260200190815260200160002060008282540192505081905550816002600083815260200190815260200160002060006101000a81548173ffffffffffffffffffffffffffffffffffffffff021916908373ffffffffffffffffffffffffffffffffffffffff160217905550808273ffffffffffffffffffffffffffffffffffffffff168473ffffffffffffffffffffffffffffffffffffffff167fddf252ad1be2c89b69c2b068fc378daa952ba7f163c4a11628f55a4df523b3ef60405160405180910390a46119778383836001612019565b505050565b6001816000016000828254019250508190555050565b6119ac82826040518060200160405280600081525061201f565b5050565b6119b982611eb2565b6119f8576040517f08c379a00000000000000000000000000000000000000000000000000000000081526004016119ef906132d2565b60405180910390fd5b80600660008481526020019081526020016000209080519060200190611a1f929190612889565b505050565b60008111611a67576040517f08c379a0000000000000000000000000000000000000000000000000000000008152600401611a5e90613332565b60405180910390fd5b6040518060a001604052808381526020013073ffffffffffffffffffffffffffffffffffffffff1681526020013373ffffffffffffffffffffffffffffffffffffffff16815260200182815260200160011515815250600a60008481526020019081526020016000206000820151816000015560208201518160010160006101000a81548173ffffffffffffffffffffffffffffffffffffffff021916908373ffffffffffffffffffffffffffffffffffffffff16021790555060408201518160020160006101000a81548173ffffffffffffffffffffffffffffffffffffffff021916908373ffffffffffffffffffffffffffffffffffffffff1602179055506060820151816003015560808201518160040160006101000a81548160ff0219169083151502179055509050505050565b60006002600083815260200190815260200160002060009054906101000a900473ffffffffffffffffffffffffffffffffffffffff169050919050565b8173ffffffffffffffffffffffffffffffffffffffff168373ffffffffffffffffffffffffffffffffffffffff161415611c45576040517f08c379a0000000000000000000000000000000000000000000000000000000008152600401611c3c90613292565b60405180910390fd5b80600560008573ffffffffffffffffffffffffffffffffffffffff1673ffffffffffffffffffffffffffffffffffffffff16815260200190815260200160002060008473ffffffffffffffffffffffffffffffffffffffff1673ffffffffffffffffffffffffffffffffffffffff16815260200190815260200160002060006101000a81548160ff0219169083151502179055508173ffffffffffffffffffffffffffffffffffffffff168373ffffffffffffffffffffffffffffffffffffffff167f17307eab39ab6107e8899845ad3d59bd9653f200f220920489ca2b5937696c3183604051611d3691906131b5565b60405180910390a3505050565b611d4e848484611682565b611d5a8484848461207a565b611d99576040517f08c379a0000000000000000000000000000000000000000000000000000000008152600401611d9090613212565b60405180910390fd5b50505050565b6060611daa826114d3565b6000600660008481526020019081526020016000208054611dca9061363d565b80601f0160208091040260200160405190810160405280929190818152602001828054611df69061363d565b8015611e435780601f10611e1857610100808354040283529160200191611e43565b820191906000526020600020905b815481529060010190602001808311611e2657829003601f168201915b505050505090506000611e54612211565b9050600081511415611e6a578192505050611ead565b600082511115611e9f578082604051602001611e87929190613108565b60405160208183030381529060405292505050611ead565b611ea884612228565b925050505b919050565b60008073ffffffffffffffffffffffffffffffffffffffff16611ed483611b99565b73ffffffffffffffffffffffffffffffffffffffff1614159050919050565b600181111561201357600073ffffffffffffffffffffffffffffffffffffffff168473ffffffffffffffffffffffffffffffffffffffff1614611f875780600360008673ffffffffffffffffffffffffffffffffffffffff1673ffffffffffffffffffffffffffffffffffffffff1681526020019081526020016000206000828254611f7f9190613541565b925050819055505b600073ffffffffffffffffffffffffffffffffffffffff168373ffffffffffffffffffffffffffffffffffffffff16146120125780600360008573ffffffffffffffffffffffffffffffffffffffff1673ffffffffffffffffffffffffffffffffffffffff168152602001908152602001600020600082825461200a91906134eb565b925050819055505b5b50505050565b50505050565b6120298383612290565b612036600084848461207a565b612075576040517f08c379a000000000000000000000000000000000000000000000000000000000815260040161206c90613212565b60405180910390fd5b505050565b600061209b8473ffffffffffffffffffffffffffffffffffffffff166124ae565b15612204578373ffffffffffffffffffffffffffffffffffffffff1663150b7a026120c461151e565b8786866040518563ffffffff1660e01b81526004016120e69493929190613147565b602060405180830381600087803b15801561210057600080fd5b505af192505050801561213157506040513d601f19601f8201168201806040525081019061212e9190612c35565b60015b6121b4573d8060008114612161576040519150601f19603f3d011682016040523d82523d6000602084013e612166565b606091505b506000815114156121ac576040517f08c379a00000000000000000000000000000000000000000000000000000000081526004016121a390613212565b60405180910390fd5b805181602001fd5b63150b7a0260e01b7bffffffffffffffffffffffffffffffffffffffffffffffffffffffff1916817bffffffffffffffffffffffffffffffffffffffffffffffffffffffff191614915050612209565b600190505b949350505050565b606060405180602001604052806000815250905090565b6060612233826114d3565b600061223d612211565b9050600081511161225d5760405180602001604052806000815250612288565b80612267846124d1565b604051602001612278929190613108565b6040516020818303038152906040525b915050919050565b600073ffffffffffffffffffffffffffffffffffffffff168273ffffffffffffffffffffffffffffffffffffffff161415612300576040517f08c379a00000000000000000000000000000000000000000000000000000000081526004016122f790613312565b60405180910390fd5b61230981611eb2565b15612349576040517f08c379a000000000000000000000000000000000000000000000000000000000815260040161234090613252565b60405180910390fd5b612357600083836001611ef3565b61236081611eb2565b156123a0576040517f08c379a000000000000000000000000000000000000000000000000000000000815260040161239790613252565b60405180910390fd5b6001600360008473ffffffffffffffffffffffffffffffffffffffff1673ffffffffffffffffffffffffffffffffffffffff16815260200190815260200160002060008282540192505081905550816002600083815260200190815260200160002060006101000a81548173ffffffffffffffffffffffffffffffffffffffff021916908373ffffffffffffffffffffffffffffffffffffffff160217905550808273ffffffffffffffffffffffffffffffffffffffff16600073ffffffffffffffffffffffffffffffffffffffff167fddf252ad1be2c89b69c2b068fc378daa952ba7f163c4a11628f55a4df523b3ef60405160405180910390a46124aa600083836001612019565b5050565b6000808273ffffffffffffffffffffffffffffffffffffffff163b119050919050565b6060600060016124e0846125f5565b01905060008167ffffffffffffffff811115612525577f4e487b7100000000000000000000000000000000000000000000000000000000600052604160045260246000fd5b6040519080825280601f01601f1916602001820160405280156125575781602001600182028036833780820191505090505b509050600082602001820190505b6001156125ea578080600190039150507f3031323334353637383961626364656600000000000000000000000000000000600a86061a8153600a85816125d4577f4e487b7100000000000000000000000000000000000000000000000000000000600052601260045260246000fd5b04945060008514156125e5576125ea565b612565565b819350505050919050565b600080600090507a184f03e93ff9f4daa797ed6e38ed64bf6a1f0100000000000000008310612679577a184f03e93ff9f4daa797ed6e38ed64bf6a1f010000000000000000838161266f577f4e487b7100000000000000000000000000000000000000000000000000000000600052601260045260246000fd5b0492506040810190505b6d04ee2d6d415b85acef810000000083106126dc576d04ee2d6d415b85acef810000000083816126d2577f4e487b7100000000000000000000000000000000000000000000000000000000600052601260045260246000fd5b0492506020810190505b662386f26fc10000831061273157662386f26fc100008381612727577f4e487b7100000000000000000000000000000000000000000000000000000000600052601260045260246000fd5b0492506010810190505b6305f5e1008310612780576305f5e1008381612776577f4e487b7100000000000000000000000000000000000000000000000000000000600052601260045260246000fd5b0492506008810190505b61271083106127cb5761271083816127c1577f4e487b7100000000000000000000000000000000000000000000000000000000600052601260045260246000fd5b0492506004810190505b60648310612814576064838161280a577f4e487b7100000000000000000000000000000000000000000000000000000000600052601260045260246000fd5b0492506002810190505b600a8310612823576001810190505b80915050919050565b6040518060a0016040528060008152602001600073ffffffffffffffffffffffffffffffffffffffff168152602001600073ffffffffffffffffffffffffffffffffffffffff168152602001600081526020016000151581525090565b8280546128959061363d565b90600052602060002090601f0160209004810192826128b757600085556128fe565b82601f106128d057805160ff19168380011785556128fe565b828001600101855582156128fe579182015b828111156128fd5782518255916020019190600101906128e2565b5b50905061290b919061290f565b5090565b5b80821115612928576000816000905550600101612910565b5090565b600061293f61293a8461340d565b6133e8565b90508281526020810184848401111561295757600080fd5b6129628482856135fb565b509392505050565b600061297d6129788461343e565b6133e8565b90508281526020810184848401111561299557600080fd5b6129a08482856135fb565b509392505050565b6000813590506129b781613b41565b92915050565b6000813590506129cc81613b58565b92915050565b6000813590506129e181613b6f565b92915050565b6000815190506129f681613b6f565b92915050565b600082601f830112612a0d57600080fd5b8135612a1d84826020860161292c565b91505092915050565b600082601f830112612a3757600080fd5b8135612a4784826020860161296a565b91505092915050565b600081359050612a5f81613b86565b92915050565b600060208284031215612a7757600080fd5b6000612a85848285016129a8565b91505092915050565b60008060408385031215612aa157600080fd5b6000612aaf858286016129a8565b9250506020612ac0858286016129a8565b9150509250929050565b600080600060608486031215612adf57600080fd5b6000612aed868287016129a8565b9350506020612afe868287016129a8565b9250506040612b0f86828701612a50565b9150509250925092565b60008060008060808587031215612b2f57600080fd5b6000612b3d878288016129a8565b9450506020612b4e878288016129a8565b9350506040612b5f87828801612a50565b925050606085013567ffffffffffffffff811115612b7c57600080fd5b612b88878288016129fc565b91505092959194509250565b60008060408385031215612ba757600080fd5b6000612bb5858286016129a8565b9250506020612bc6858286016129bd565b9150509250929050565b60008060408385031215612be357600080fd5b6000612bf1858286016129a8565b9250506020612c0285828601612a50565b9150509250929050565b600060208284031215612c1e57600080fd5b6000612c2c848285016129d2565b91505092915050565b600060208284031215612c4757600080fd5b6000612c55848285016129e7565b91505092915050565b60008060408385031215612c7157600080fd5b600083013567ffffffffffffffff811115612c8b57600080fd5b612c9785828601612a26565b9250506020612ca885828601612a50565b9150509250929050565b600060208284031215612cc457600080fd5b6000612cd284828501612a50565b91505092915050565b6000612ce7838361301a565b60a08301905092915050565b612cfc81613587565b82525050565b612d0b81613575565b82525050565b6000612d1c8261347f565b612d2681856134ad565b9350612d318361346f565b8060005b83811015612d62578151612d498882612cdb565b9750612d54836134a0565b925050600181019050612d35565b5085935050505092915050565b612d7881613599565b82525050565b612d8781613599565b82525050565b6000612d988261348a565b612da281856134be565b9350612db281856020860161360a565b612dbb81613776565b840191505092915050565b6000612dd182613495565b612ddb81856134cf565b9350612deb81856020860161360a565b612df481613776565b840191505092915050565b6000612e0a82613495565b612e1481856134e0565b9350612e2481856020860161360a565b80840191505092915050565b6000612e3d602d836134cf565b9150612e4882613787565b604082019050919050565b6000612e606032836134cf565b9150612e6b826137d6565b604082019050919050565b6000612e836025836134cf565b9150612e8e82613825565b604082019050919050565b6000612ea6601c836134cf565b9150612eb182613874565b602082019050919050565b6000612ec96024836134cf565b9150612ed48261389d565b604082019050919050565b6000612eec6019836134cf565b9150612ef7826138ec565b602082019050919050565b6000612f0f6029836134cf565b9150612f1a82613915565b604082019050919050565b6000612f32602e836134cf565b9150612f3d82613964565b604082019050919050565b6000612f556040836134cf565b9150612f60826139b3565b604082019050919050565b6000612f786020836134cf565b9150612f8382613a02565b602082019050919050565b6000612f9b6027836134cf565b9150612fa682613a2b565b604082019050919050565b6000612fbe6018836134cf565b9150612fc982613a7a565b602082019050919050565b6000612fe16021836134cf565b9150612fec82613aa3565b604082019050919050565b6000613004603d836134cf565b915061300f82613af2565b604082019050919050565b60a08201600082015161303060008501826130ea565b5060208201516130436020850182612cf3565b5060408201516130566040850182612cf3565b50606082015161306960608501826130ea565b50608082015161307c6080850182612d6f565b50505050565b60a08201600082015161309860008501826130ea565b5060208201516130ab6020850182612cf3565b5060408201516130be6040850182612cf3565b5060608201516130d160608501826130ea565b5060808201516130e46080850182612d6f565b50505050565b6130f3816135f1565b82525050565b613102816135f1565b82525050565b60006131148285612dff565b91506131208284612dff565b91508190509392505050565b60006020820190506131416000830184612d02565b92915050565b600060808201905061315c6000830187612d02565b6131696020830186612d02565b61317660408301856130f9565b81810360608301526131888184612d8d565b905095945050505050565b600060208201905081810360008301526131ad8184612d11565b905092915050565b60006020820190506131ca6000830184612d7e565b92915050565b600060208201905081810360008301526131ea8184612dc6565b905092915050565b6000602082019050818103600083015261320b81612e30565b9050919050565b6000602082019050818103600083015261322b81612e53565b9050919050565b6000602082019050818103600083015261324b81612e76565b9050919050565b6000602082019050818103600083015261326b81612e99565b9050919050565b6000602082019050818103600083015261328b81612ebc565b9050919050565b600060208201905081810360008301526132ab81612edf565b9050919050565b600060208201905081810360008301526132cb81612f02565b9050919050565b600060208201905081810360008301526132eb81612f25565b9050919050565b6000602082019050818103600083015261330b81612f48565b9050919050565b6000602082019050818103600083015261332b81612f6b565b9050919050565b6000602082019050818103600083015261334b81612f8e565b9050919050565b6000602082019050818103600083015261336b81612fb1565b9050919050565b6000602082019050818103600083015261338b81612fd4565b9050919050565b600060208201905081810360008301526133ab81612ff7565b9050919050565b600060a0820190506133c76000830184613082565b92915050565b60006020820190506133e260008301846130f9565b92915050565b60006133f2613403565b90506133fe828261366f565b919050565b6000604051905090565b600067ffffffffffffffff82111561342857613427613747565b5b61343182613776565b9050602081019050919050565b600067ffffffffffffffff82111561345957613458613747565b5b61346282613776565b9050602081019050919050565b6000819050602082019050919050565b600081519050919050565b600081519050919050565b600081519050919050565b6000602082019050919050565b600082825260208201905092915050565b600082825260208201905092915050565b600082825260208201905092915050565b600081905092915050565b60006134f6826135f1565b9150613501836135f1565b9250827fffffffffffffffffffffffffffffffffffffffffffffffffffffffffffffffff03821115613536576135356136e9565b5b828201905092915050565b600061354c826135f1565b9150613557836135f1565b92508282101561356a576135696136e9565b5b828203905092915050565b6000613580826135d1565b9050919050565b6000613592826135d1565b9050919050565b60008115159050919050565b60007fffffffff0000000000000000000000000000000000000000000000000000000082169050919050565b600073ffffffffffffffffffffffffffffffffffffffff82169050919050565b6000819050919050565b82818337600083830152505050565b60005b8381101561362857808201518184015260208101905061360d565b83811115613637576000848401525b50505050565b6000600282049050600182168061365557607f821691505b6020821081141561366957613668613718565b5b50919050565b61367882613776565b810181811067ffffffffffffffff8211171561369757613696613747565b5b80604052505050565b60006136ab826135f1565b91507fffffffffffffffffffffffffffffffffffffffffffffffffffffffffffffffff8214156136de576136dd6136e9565b5b600182019050919050565b7f4e487b7100000000000000000000000000000000000000000000000000000000600052601160045260246000fd5b7f4e487b7100000000000000000000000000000000000000000000000000000000600052602260045260246000fd5b7f4e487b7100000000000000000000000000000000000000000000000000000000600052604160045260246000fd5b6000601f19601f8301169050919050565b7f4552433732313a2063616c6c6572206973206e6f7420746f6b656e206f776e6560008201527f72206f7220617070726f76656400000000000000000000000000000000000000602082015250565b7f4552433732313a207472616e7366657220746f206e6f6e20455243373231526560008201527f63656976657220696d706c656d656e7465720000000000000000000000000000602082015250565b7f4552433732313a207472616e736665722066726f6d20696e636f72726563742060008201527f6f776e6572000000000000000000000000000000000000000000000000000000602082015250565b7f4552433732313a20746f6b656e20616c7265616479206d696e74656400000000600082015250565b7f4552433732313a207472616e7366657220746f20746865207a65726f2061646460008201527f7265737300000000000000000000000000000000000000000000000000000000602082015250565b7f4552433732313a20617070726f766520746f2063616c6c657200000000000000600082015250565b7f4552433732313a2061646472657373207a65726f206973206e6f74206120766160008201527f6c6964206f776e65720000000000000000000000000000000000000000000000602082015250565b7f45524337323155524953746f726167653a2055524920736574206f66206e6f6e60008201527f6578697374656e7420746f6b656e000000000000000000000000000000000000602082015250565b7f506c65617365207375626d6974207468652061736b696e67207072696365206960008201527f6e206f7264657220746f20636f6d706c65746520746865207075726368617365602082015250565b7f4552433732313a206d696e7420746f20746865207a65726f2061646472657373600082015250565b7f4d616b6520737572652074686174207468652070726963652069736e2774206e60008201527f6567617469766500000000000000000000000000000000000000000000000000602082015250565b7f4552433732313a20696e76616c696420746f6b656e2049440000000000000000600082015250565b7f4552433732313a20617070726f76616c20746f2063757272656e74206f776e6560008201527f7200000000000000000000000000000000000000000000000000000000000000602082015250565b7f4552433732313a20617070726f76652063616c6c6572206973206e6f7420746f60008201527f6b656e206f776e6572206f7220617070726f76656420666f7220616c6c000000602082015250565b613b4a81613575565b8114613b5557600080fd5b50565b613b6181613599565b8114613b6c57600080fd5b50565b613b78816135a5565b8114613b8357600080fd5b50565b613b8f816135f1565b8114613b9a57600080fd5b5056fea2646970667358221220c14c3398d66adf4dc727ac56cec2dfe36d448cad80a12093fb95942dbfaa544264736f6c63430008040033",
  "linkReferences": {},
  "deployedLinkReferences": {}
}